:20F80000B240805A2001F2D020005300B01266F9C2435600F2408E005700F240600056004B
:20F82000F2F0FC005300E2C302000D123D401F001D83FE233D41E2B30200F223F2D0820006
:20F840002200F2D082002100F2F0BB002200F2D044002700F2D044002100F2D031002200F9
:20F86000F2F0CE002100F2C22200F2D22700F2D221003C40E803B01294FCF2B22000212053
:20F880000D120E123D4034DF0E431D830E73FD230D93FB233E413D41003C003C003C034352
:20F8A000F2B220000E2082430202D2D321003C40F401B01294FCD2C321003C40F401B0121B
:20F8C00094FCD2D321000D123D4040001D83FE233D410343F2E0210021000D123D40400081
:20F8E0001D83FE233D410343F2E0210021000D123D400E001D83FE233D410343F2E021004D
:20F9000021000D123D4040001D83FE233D410343F2D0100021000D123D4040001D83FE23D5
:20F920003D410343F2E0210021003C406400B01294FCF2B0400020000420D2430A02B012B4
:20F94000D2FC929302020520B24024026001B01266FAF2D044002400F2D044002500C24396
:20F96000230032D2FF3F0A125F42FE105F42FF10D242FE1056003F4080005FD2FF10C24FDF
:20F980005700F2F0FC005300E2C302000D123D401F001D83FE233D41E2B30200F223B240A0
:20F9A00000596201B2402402600192B36201FD2792C362011A42720192B36201FD2792C39E
:20F9C00062011F4272010F8A0A4F3C40E8030D4AB0123AFD824C00023C40E8030D4AB012F7
:20F9E0003AFD12C30A100A9E022C92530002824360013A4130410F120E120D120C120B1277
:20FA0000829302022524A2932E01272092C3640192930C020F2092B306021120F2F07F00DE
:20FA200021001F4270011F521002824F740182430C02133CF2D08000210092430C028243DD
:20FA40000402824306028243640192430802053CF24003000A02B012D2FC3B413C413D4141
:20FA60003E413F410013E2D22600B2400089640192B36401FD27F2F07F00210092C36401B0
:20FA80001E427401B2400049640192B36401FD27F2D080002100824364011F4274010F8E23
:20FAA000824F0E020C4FB01286FC0E4C824E10020C4FB01282FC0C5E824C12020C4FB01286
:20FAC00076FC0C5E0C5F824C1402E2C2260030410F12F2B0400023002520E2B223002A2450
:20FAE000F2E080002100E2C22300E2E22400929302022020929308021D20824308021F42DF
:20FB000070011F521202824F7201B240100062011F4270011F521402824F7401B2401000A5
:20FB20006401083CE2E32100F2F0BF002300F2E0400024003F4100130A1209127A4C1E3C52
:20FB40001C530E930D243F9000010A2C29434F4F8F107B4C0FDB1983FA23023C2F92022822
:20FB60007B4C053C0B4A033C1D53CD4BFFFF1F833F93FA23033C1D53CD4FFFFF7F4C4F9A55
:20FB8000FA237F4C0F93EA237F4C8F106B4C0F5BD7233040A6FD0A1209123F40D2FD3F90E2
:20FBA000CDFD19283F40DEFD3F90D7FD14283A40DEFD3A80D6FD3A5003000A110A113940E3
:20FBC000D6FD3C497F4C4F4F0F5F1F4FCCFD3D498F121A83F6233F4000003F900000082468
:20FBE0003A400000023C3F4A8F123A900000FB233040A6FD0F120E120D120C120B1292C338
:20FC00006201829302021624E2B2200002249253060292530402B2920402062C1F4270012E
:20FC20001F521002824F7201B2920402072082436201043CE2430A02B012D2FC3B413C416A
:20FC40003D413E413F4100133DF00F003DE00F000D5D0D5D005D12C30C1012C30C1012C3C4
:20FC60000C1012C30C1012C30C1012C30C1012C30C1012C30C1012C30C1012C30C1012C3FC
:20FC80000C1012C30C1012C30C1012C30C1012C30C1030410D4C82436201829300020A2051
:20FCA0000F4D0F5F0F5F0F5F0D5D0D5D0D5F824D7201063C1C420002B01264FD824C720116
:20FCC000B2401401600192B36201FD2782436001304132C20343C2432700F240410022005E
:20FCE000F240400021005C420A023D406400B01264FD0B4CF2E0410021000C4BB01294FC8F
:20FD0000F93F0F120E120D120C120B12E2420A02B012D2FC3B413C413D413E413F410013C7
:20FD200031407E02B012B2FD0C930224B01296FB0C43B01200F8B012B6FD0E430F4C1C43C0
:20FD40000F5F0E6E0E9D01280E8D0C6CF92B30411F4C01000F9305241D53CD43FFFF1F83E6
:20FD6000FB2330410E4312C30C1001280E5D0D5D0C93F9230C4E30410F4C0C4D3D400300FA
:20FD80000D5F1E4F010030408AFD0F4C0E9305241F53FF4DFFFF1E83FB2330413441354196
:1AFDA00036413741384139413A4130411E43304038FB1C4330410343FF3F23
:20FDBA0002000E00000001000000000001000000010050FDACFD78FD00000800BAFD0002EA
:04FDDA00D2FD0E0246
:02FFE400D0FA51
:02FFE60002FD1A
:02FFE80002FD18
:02FFEA0002FD16
:02FFF000F6F920
:02FFF200F4FB1E
:02FFF40002FD0C
:02FFFC0002FD04
:02FFFE0020FDE4
:00000001FF
